{
  "transactions": [
    {
      "hash": "0xfb495fa31fd1adc17c4bea3ab548a5749cd3f87b2e723f7e52d8838cdb0190d8",
      "transactionType": "CALL",
      "contractName": null,
      "contractAddress": "0x779877a7b0d9e8603169ddbd7836e478b4624789",
      "function": "transferAndCall(address,uint256,bytes)",
      "arguments": [
        "0x9DdfaCa8183c41ad55329BdeeD9F6A8d53168B1B",
        "3000000000000000000",
        "0x28e71ef008640e5240bca964bc806c379304a19659b23168acf196d862250d76"
      ],
      "transaction": {
        "from": "0xeca5e7fadf270376af5e6f9bd06124bde90b58d3",
        "to": "0x779877a7b0d9e8603169ddbd7836e478b4624789",
        "gas": "0x14cbb",
        "value": "0x0",
        "input": "0x4000aea00000000000000000000000009ddfaca8183c41ad55329bdeed9f6a8d53168b1b00000000000000000000000000000000000000000000000029a2241af62c00000000000000000000000000000000000000000000000000000000000000000060000000000000000000000000000000000000000000000000000000000000002028e71ef008640e5240bca964bc806c379304a19659b23168acf196d862250d76",
        "nonce": "0x30",
        "chainId": "0xaa36a7"
      },
      "additionalContracts": [],
      "isFixedGasLimit": false
    }
  ],
  "receipts": [
    {
      "status": "0x1",
      "cumulativeGasUsed": "0x9932c4",
      "logs": [
        {
          "address": "0x779877a7b0d9e8603169ddbd7836e478b4624789",
          "topics": [
            "0xddf252ad1be2c89b69c2b068fc378daa952ba7f163c4a11628f55a4df523b3ef",
            "0x000000000000000000000000eca5e7fadf270376af5e6f9bd06124bde90b58d3",
            "0x0000000000000000000000009ddfaca8183c41ad55329bdeed9f6a8d53168b1b"
          ],
          "data": "0x00000000000000000000000000000000000000000000000029a2241af62c0000",
          "blockHash": "0x198fe01f6d2da196eff7f9655b09f54f027bfaf20f71552ee53890a920aff79b",
          "blockNumber": "0x7e11f7",
          "blockTimestamp": "0x6818e800",
          "transactionHash": "0xfb495fa31fd1adc17c4bea3ab548a5749cd3f87b2e723f7e52d8838cdb0190d8",
          "transactionIndex": "0x57",
          "logIndex": "0xa1",
          "removed": false
        },
        {
          "address": "0x779877a7b0d9e8603169ddbd7836e478b4624789",
          "topics": [
            "0xe19260aff97b920c7df27010903aeb9c8d2be5d310a2c67824cf3f15396e4c16",
            "0x000000000000000000000000eca5e7fadf270376af5e6f9bd06124bde90b58d3",
            "0x0000000000000000000000009ddfaca8183c41ad55329bdeed9f6a8d53168b1b"
          ],
          "data": "0x00000000000000000000000000000000000000000000000029a2241af62c00000000000000000000000000000000000000000000000000000000000000000040000000000000000000000000000000000000000000000000000000000000002028e71ef008640e5240bca964bc806c379304a19659b23168acf196d862250d76",
          "blockHash": "0x198fe01f6d2da196eff7f9655b09f54f027bfaf20f71552ee53890a920aff79b",
          "blockNumber": "0x7e11f7",
          "blockTimestamp": "0x6818e800",
          "transactionHash": "0xfb495fa31fd1adc17c4bea3ab548a5749cd3f87b2e723f7e52d8838cdb0190d8",
          "transactionIndex": "0x57",
          "logIndex": "0xa2",
          "removed": false
        },
        {
          "address": "0x9ddfaca8183c41ad55329bdeed9f6a8d53168b1b",
          "topics": [
            "0x1ced9348ff549fceab2ac57cd3a9de38edaaab274b725ee82c23e8fc8c4eec7a",
            "0x28e71ef008640e5240bca964bc806c379304a19659b23168acf196d862250d76"
          ],
          "data": "0x0000000000000000000000000000000000000000000000002b05699353b6000000000000000000000000000000000000000000000000000054a78dae49e20000",
          "blockHash": "0x198fe01f6d2da196eff7f9655b09f54f027bfaf20f71552ee53890a920aff79b",
          "blockNumber": "0x7e11f7",
          "blockTimestamp": "0x6818e800",
          "transactionHash": "0xfb495fa31fd1adc17c4bea3ab548a5749cd3f87b2e723f7e52d8838cdb0190d8",
          "transactionIndex": "0x57",
          "logIndex": "0xa3",
          "removed": false
        }
      ],
      "logsBloom": "0x00000004000000000000000000000000000000000020000000000000020000000000000000100800000000000000000000000000000000000000000000000000000000000000000008000008000000000200000000000000000020000020000008000000000000000000000000000000000000000000000000000010000040000000000000000000000000010000800000000020000000000000000000000000000000000000000000000000010000000000000000000000000004000000000000000002000000000000000000000000000000000000000100000000000000000010000000000000800000000000000000000000000000000000000000000010",
      "type": "0x2",
      "transactionHash": "0xfb495fa31fd1adc17c4bea3ab548a5749cd3f87b2e723f7e52d8838cdb0190d8",
      "transactionIndex": "0x57",
      "blockHash": "0x198fe01f6d2da196eff7f9655b09f54f027bfaf20f71552ee53890a920aff79b",
      "blockNumber": "0x7e11f7",
      "gasUsed": "0xf0e5",
      "effectiveGasPrice": "0x110ad63dd",
      "from": "0xeca5e7fadf270376af5e6f9bd06124bde90b58d3",
      "to": "0x779877a7b0d9e8603169ddbd7836e478b4624789",
      "contractAddress": null
    }
  ],
  "libraries": [],
  "pending": [],
  "returns": {},
  "timestamp": 1746462721,
  "chain": 11155111,
  "commit": "a3e48fb"
}